:1013C300E4FD7C01ECD39FE49E5010EDC394FA74CA
:0B13D30080948050030D80F30C80E933
:0113DE0022EC
:10143D007590FFC2B5C2B7D2B6D2B5E59020E7FB25
:03144D00C2B52203
:101383007D30E4FF1213447D01E4FF1213447D0614
:10139300E4FF1213447D0CE4FF1213447D02E4FFC7
:0313A300021344EE
:0D133700EC2480FDE4FF121344EB2488FD3C
:1013440012143DEF24FF92B7C2B6C2B58D900000CF
:0B135400D2B50000C2B5D2B6D2B7225D
:1014270012143D7590FFEF24FF92B7D2B6C2B5D222
:05143700B5AF90C2B545
:01143C00228D
:0812D7008B148A158916AE077D
:1012DF007D30E4FF121344AD06121344E4FEEEC357
:1012EF0095175017AB14AA15A9168E827583001285
:0B12FF00011DFD7F011213440E80E36F
:01130A0022C0
:070003007D01E4FF0213443C
:1010F900E4FEFCFB7D34FF1213447D36121344EEEB
:10110900C3940274809480503FE4FCECC39420742F
:101119008094805030EC2480FDE4FF121344EE707B
:10112900047D8080047D88E4FF121344E4FBEBC353
:10113900941074809480500AE4FD7F011213440BCB
:0F11490080EC0C80C60E80B77D30E4FF021344AB
:060EC1008B15AE07AC0525
:100EC7007D34E4FF1213447D36121344ECD3941F90
:100ED70074809480400353041FEEC4540FFB121315
:100EE700370F1214277F01121427AA077F01121444
:100EF70027A90712133753060FEEC394087480947B
:100F0700804003530607E51564017015AD027F01A4
:100F1700121344A8067480088002C313D8FC4980C2
:100F270016AD027F01121344AF06A807748008802C
:100F370002C313D8FCF459FD7F011213447D30E43A
:040F4700FF0213444E
:10130B008F128D138B14120EC1E51204FFAB14ADAB
:10131B0013120EC1E51304FDAB14AF12120EC1E58F
:0C132B001204FFE51304FDAB14020EC118
:100A720050726573732074686520506175736500E8
:100A8200666F7220436F6E74696E75652E2E2E002E
:100A920020506C6561736520776169742E2E2E007B
:100AA2007C2D2D2D2D2D546970732D2D2D2D2D7CEA
:100AB200007C20666D772D6C79782D7A6774202002
:100AC2007C007C2D2D2D2D2D2D2D2D2D2D2D2D2DE3
:100AD2002D7C0020202020202D3E6F6B00205468AA
:100AE200652D4F64442D536E414B656500202020D7
:100AF20020202065617379002020202D3E2068612E
:100B020072640020202020202074697073004761E5
:100B12006D654F7665720073636F72653A002020CF
:0A0B2200202D3E002020202020009E
:1013A600012E0202227530012B00012100C101C16C
:0113B6000036
:0F145000D2AFD2A9758901E4F58CF58AD28C222E
:03000B0002145F7D
:09145F00758C00758A00052B3222
:1013F9008E098F0AE50A150A700215091445096054
:0714090005120B2C80EE22FE
:100B2C002080137F017E001213C3208009E52E6400
:100B3C00016003E4F52E2081117F017E001213C3A6
:100B4C00208107E52E6003752E012082137F017E24
:100B5C00001213C3208209E52E64026003752E0374
:100B6C002083137F017E001213C3208309E52E64BA
:100B7C00036003752E02208602D2012084447F1468
:100B8C007E001213C320843A20002F7BFF7A0A794F
:100B9C007275170F7F901212D77BFF7A0A798275C4
:100BAC00170F7F891212D73084FDD2003000082035
:100BBC000105120B2C80F5C201221200033084FDBA
:030BCC00C2002242
:100BCF002080117F017E001213C3208007E52E6065
:100BDF0003752E012081137F017E001213C3208124
:100BEF0009E52E64016003E4F52E2082137F017E58
:100BFF00001213C3208209E52E64036003752E02D1
:100C0F002083137F017E001213C3208309E52E6416
:100C1F00026003752E03208602D2012084447F14C4
:100C2F007E001213C320843A20002F7BFF7A0A79AB
:100C3F007275170F7F901212D77BFF7A0A79827520
:100C4F00170F7F891212D73084FDD2003000082091
:100C5F000105120B2C80F5C201221200033084FD16
:030C6F00C200229E
:101410001200037BFF7A0A799275170F7F881212E8
:07142000D71210F9020003CE
:1013DF007E007F007D647C0012129B121383121417
:0A13EF00507B007A0079240207F811
:101032007B007A0079241207F8121410200154AFB1
:1010420023AE221213F9120301782C7C007D007E5C
:10105200007F021200DEAF307E00EF64647005751F
:10106200306380D8EF64C84E700EF52174D4252306
:10107200F52374FE3522F522E5217012F50C750D6B
:1010820000750E24FB7A00792F1209B380AE12107C
:061092009880A9C20122B2
:100FC0007B007A0079241207F8121410200160AF18
:100FD00023AE221213F9120301782C7C007D007ECF
:100FE000007F021200DEAF307E00EF646470057592
:100FF000306380D8EF64C84E700EF52174D4252379
:10100000F52374FE3522F522E521701A120BCF75F7
:101010000C00750D00750E247B007A00792F1209E3
:10102000B3120BCF80A6120BCF121098020FCCC2B6
:0210300001229B
:1011B5001200037BFF7A0A79A27517107F8012123D
:1011C500D77BFF7A0A79B37517107F901212D77BF8
:1011D500FF7A0A79C47517107F881212D77BFF7AB8
:1011E5000A79D57517097F981212D730860320859D
:1011F500FA7F147E001213C33086032085ED3086F6
:07120500FD20850280F822A4
:0F109800750C00750D00750E2C7B007A00792405
:1010A7001201B1802AE5114510450F602AAB0FAA3E
:1010B70010A911120104FF90000112011DFD7B010F
:1010C70012130BAB0FAA10A9119000021202208B6A
:1010D7000F8A10891180CEE5216016AB0CAA0DA9E5
:1010E7000E120104FF90000112011DFDE4FB121313
:0110F7000BED
:0110F80022D5
:1005C600E4F509750A021214107BFF7A0A79DF75C1
:1005D600170E7F801212D77BFF7A0A79EF75170AFA
:1005E6007F901212D77BFF7A0A79FA75170A7F88ED
:1005F6001212D77BFF7A0B790575170A7F981212AC
:10060600D7E50A6401702E20812B7F05FE1213C3E5
:10061600208122750A027BFF7A0B79267517057FE2
:10062600901212D77BFF7A0B79207517057F8812F7
:1006360012D73081FDE50A6402705D20802B7F05AC
:10064600FE1213C3208022750A017BFF7A0B7926DE
:100656007517057F881212D77BFF7A0B79207517DD
:10066600057F901212D73080FD20812C7F057E00F9
:100676001213C3208122750A037BFF7A0B79267534
:1006860017057F881212D77BFF7A0B79207517051D
:100696007F981212D73081FDE50A6403702E208000
:1006A6002B7F14FE1213C3208022750A027BFF7A69
:1006B6000B79267517057F981212D77BFF7A0B796F
:1006C600207517057F881212D73080FD308503020A
:1006D60006077F057E001213C3308503020607AFA7
:0D06E6002B7E0012124EC28C3085FDAF0A33
:0106F30022E4
:10115800E4F511F5121200037BFF7A0B791075176D
:10116800087F921212D77BFF7A0B79197517067FC1
:101178008A1212D7AF2A1212593085032086FA7FB5
:101188000A7E001213C33085032086ED7B007A00A7
:101198007924120F4B7B007A0079241207F8E4F5C2
:0C11A80021752E023085FD3086FAD20140
:0111B4002218
:090DA80075140075150075160F95
:060DB1008B118A12891368
:100DB7001201B19000021202209000021202208B51
:100DC700178A188919AB11AA12A9139000061201E4
:100DD7001DC39404748094805002C322E5194518FA
:100DE70045176048AB17AA18A919120104FFAB14DD
:100DF700AA15A916120104B5071EAB17AA18A91937
:100E070090000112011DFFAB14AA15A9169000014D
:100E170012011DB50702D322AB17AA18A919900012
:0D0E2700021202208B178A18891980B0C3AF
:010E3400229B
:101259008F1315131513C3E513940A7480948050E2
:0C1269000B7D307F01121344E513801D43
:10127500E51375F00A84F514E51375F00A8485F015
:1012850015E5142430FD7F01121344E5152430FDC6
:051295007F011213446B
:01129A002231
:0609B3008B098A0A890B82
:1009B900D202200203020A5812120C8F2BE52B7562
:1009C900F03F84E5F025E0AB09AA0AA90B12017DE5
:1009D900E52B75F01F84E5F025E0AB09AA0AA90B00
:1009E90090000112018FAB0CAA0DA90E1201B18062
:1009F90046E5114510450F6046AB09AA0AA90B1235
:100A09000104FFAB0FAA10A911120104B5071CAB11
:100A190009AA0AA90B90000112011DFFAB0FAA1028
:100A2900A91190000112011D6F6014AB0FAA10A942
:100A3900119000021202208B0F8A10891180B2E5F1
:100A4900114510450F60030209BBC2020209BBAB85
:100A590009AA0AA90B120104FF90000112011DFD48
:080A69007B0112130B75210142
:010A71002262
:0F030100750C00750D00750E2F7B007A007924A6
:060310008B098A0A890B2B
:10031600C202C203E52E1470030203CE1470030258
:1003260004F31470030204592403600302057BAB33
:1003360009AA0AA90B1201B190000112011D70034E
:10034600020576120B2CAB09AA0AA90B1201B19071
:10035600000112011DFF7E00AB0CAA0DA90E900034
:100366000112011D2402FDE433FCEDB5071FEEB5B5
:10037600041BAB09AA0AA90B1201B1120104FFABB7
:100386000CAA0DA90E120104B50702D202AB09AAE6
:100396000AA90B1201B1120104F50F900001120116
:1003A6001D24FEF510AB09AA0AA90B90000612013E
:1003B6001DC3940474809480500302057B120DA81B
:1003C600400302057B020576AB09AA0AA90B1201B6
:1003D600B190000112011D643E7003020576120BF6
:1003E6002CAB09AA0AA90B1201B190000112011D3A
:1003F600FFAB0CAA0DA90E90000112011D24FEB53B
:10040600071BAB09AA0AA90B1201B1120104FEAB24
:100416000CAA0DA90E120104B50602D202AB09AA56
:100426000AA90B1201B1120104F50FEF2402F5100F
:10043600AB09AA0AA90B90000612011DC394047405
:10044600809480500302057B120DA8400302057BB1
:10045600020576AB09AA0AA90B1201B112010460C2
:100466000464807003020576120B2CAB09AA0AA954
:100476000B1201B190000112011DFFAB0CAA0DA9D0
:100486000E90000112011DB50728AB09AA0AA90B97
:100496001201B1120104FF7E00AB0CAA0DA90E12C7
:1004A60001042402FDE433FCEDB50706EEB50402B3
:1004B600D202AB09AA0AA90B1201B112010424FE49
:1004C600F50F90000112011DF510AB09AA0AA90B40
:1004D60090000612011DC394047480948050030298
:1004E600057B120DA8400302057B020576AB09AA1F
:1004F6000AA90B1201B1120104FF647E6005EF64C4
:10050600FE7002806B120B2CAB09AA0AA90B120112
:10051600B190000112011DFFAB0CAA0DA90E9000AF
:100526000112011DB5071DAB09AA0AA90B1201B1DB
:10053600120104FEAB0CAA0DA90E12010424FEB58D
:100546000602D202AB09AA0AA90B1201B1120104D2
:100556002402F50F8F10AB09AA0AA90B9000061208
:10056600011DC3940474809480400A120DA850059E
:10057600D20312115830030DAB0CAA0DA90E900030
:100586000174648023120B2C751400751500751602
:100596000FAB09AA0AA90B120D0E300219AB0CAA51
:1005A6000DA90E90000174C812018FE4F510F50F25
:0F05B600FB7A00790F22AB09AA0AA90B1208F2EF
:0105C5002213
:03135F001213DF87
:101362001205C68F08EF64017003121032E508649B
:0F137200027003120FC0E508640370E41211B596
:0213810080DF0B
:0607F8008B138A14891521
:1007FE007F057E00120C72AA06A9077516018A17CC
:10080E008918AB16C003C002C001AB13AA14A915F8
:10081E00900003120250C003C002C001AB13AA1411
:10082E00A9151201D1AB13AA14A9159000067401D3
:10083E0012018F7B007A007900C003C002C001ABA9
:10084E0016AA17A918900002120250AB16AA17A9E1
:10085E0018740212017DAB16AA17A918900001E4B4
:10086E0012018F7F057E00120C72AA06A90775165B
:10087E00018A1789187B007A007900C003C002C074
:10088E0001AB16AA17A918900002120250AB16AAB5
:10089E0017A918E412017DAB16AA17A9189000012A
:1008AE0012018FAB16AA17A918C003C002C001AB64
:1008BE0013AA14A9151201B1900002120250AB1620
:1008CE00AA17A918C003C002C001AB13AA14A91518
:1008DE00900003120250AB13AA14A91590000674CF
:0408EE000202018F72
:060F4B008B138A148915C6
:100F51001201B18B168A178918E5174518451660D5
:100F610024AB16AA17A9189000021202208B198A25
:100F71001A891BAE17AF181206F4851916851A17B0
:100F8100851B1880D47B007A007900C003C002C0A1
:100F910001AB13AA14A9151201D17B007A007900C3
:100FA100C003C002C001AB13AA14A915900003121B
:0F0FB1000250AB13AA14A915900006E402018F99
:060D0E008B118A1289130B
:100D14007F057E00120C72AA06A9077517018A18AE
:100D240089197B007A007900C003C002C001AB17A7
:100D3400AA18A919900002120250AB14AA15A916F8
:100D4400120104AB17AA18A91912017DAB14AA1534
:100D5400A91690000112011DAB17AA18A919900039
:100D64000112018FAB11AA12A9131201B1C003C061
:100D740002C001AB17AA18A919900002120250ABC5
:100D840017AA18A919C003C002C001AB11AA12A95D
:100D9400131201D1AB11AA12A91390000674011207
:030DA400014AD32E
:010DA7002229
:0608F2008B118A1289132C
:1008F8001201B1803DAB11AA12A913900003120294
:1009080020C003C002C001AB16AA17A918900002A4
:10091800120220D082D083D0E06B7008E965827023
:1009280003EA65836014AB16AA17A918900002128F
:1009380002208B168A17891880BBAB11AA12A9133B
:10094800900003120220120104F514AB11AA12A997
:100958001390000312022090000112011DF515AE3C
:1009680002AF011206F47B007A007900C003C002CE
:10097800C001AB16AA17A918900002120250AB16B4
:10098800AA17A918C003C002C001AB11AA12A91363
:10099800900003120250AB11AA12A913900006741A
:0A09A800FF12014A7B007A00791467
:0109B2002222
:03000000020E35B8
:0C0E3500787FE4F6D8FD758134020E7C55
:10000E00E709F608DFFA8046E709F208DFFA803ED4
:10001E0088828C83E709F0A3DFFA8032E309F608C1
:10002E00DFFA8078E309F208DFFA807088828C8329
:10003E00E309F0A3DFFA806489828A83E0A3F608DD
:10004E00DFFA805889828A83E0A3F208DFFA804CB7
:10005E0080D280FA80C680D4806980F2803380108E
:10006E0080A680EA809A80A880DA80E280CA8033F7
:10007E0089828A83ECFAE493A3C8C582C8CCC5836F
:10008E00CCF0A3C8C582C8CCC583CCDFE9DEE7803F
:10009E000D89828A83E493A3F608DFF9ECFAA9F0BE
:1000AE00EDFB2289828A83ECFAE0A3C8C582C8CC14
:1000BE00C583CCF0A3C8C582C8CCC583CCDFEADE2D
:1000CE00E880DB89828A83E493A3F208DFF980CC8F
:1000DE0088F0EF60010E4E60C388F0ED2402B40488
:1000EE000050B9F582EB2402B4040050AF2323452F
:0600FE00822390005E73F6
:10010400BB010689828A83E0225002E722BBFE02F9
:09011400E32289828A83E493222C
:10011D00BB010CE58229F582E5833AF583E0225097
:10012D0006E92582F8E622BBFE06E92582F8E222E1
:0D013D00E58229F582E5833AF583E49322FB
:10014A00BB010FF8E58229F582E5833AF583E028B9
:10015A00F0225009C58229F8E58226F622BBFE095B
:10016A00C58229F8E22582F222F8EA2583F583E995
:03017A00932822A5
:10017D00BB010689828A83F0225002F722BBFE0161
:02018D00F3225B
:10018F00F8BB010DE58229F582E5833AF583E8F0A6
:10019F00225006E92582C8F622BBFE05E92582C852
:0201AF00F2223A
:1001B100BB010789828A830202D15005E9F8020254
:1001C100BFBBFE05E9F80202E389828A830202F5D8
:1001D100BB011A89828A83D0F0D0E0F8D0E0F9D04F
:1001E100E0FAD0E0FBE8C0E0C0F00202DA5016E924
:1001F100F8D083D082D0E0F9D0E0FAD0E0FBC08221
:10020100C0830202C8BBFE16E9F8D083D082D0E0D9
:0F021100F9D0E0FAD0E0FBC082C0830202EC22F9
:10022000BB010DE58229F582E5833AF5830202D10F
:100230005007E92582F80202BFBBFE07E92582F8D4
:100240000202E3E58229F582E5833AF5830202F5AD
:10025000BB0120E58229F582E5833AF583D0F0D011
:10026000E0F8D0E0F9D0E0FAD0E0FBE8C0E0C0F080
:100270000202DA5018E92582F8D083D082D0E0F962
:10028000D0E0FAD0E0FBC082C0830202C8BBFE18F7
:10029000E92582F8D083D082D0E0F9D0E0FAD0E02E
:0902A000FBC082C0830202EC22C3
:10120C00AC31AD32AE33AF347810EC4D4E4F700480
:10121C007CA57DA5C3EC13FCED13FDEE13FEEF13C3
:10122C00FF5010EC64CCFCED644CFDEE644EFEEF14
:10123C0064CEFFD8DF8C318D328E338F34EE547FF9
:0D124C00FE228E318F3274A5F533F5342269
:100C72008E1A8F1B7E007F648F828E83E0FCA3E03E
:100C8200FD4C7003FEFF228D828C83A3A3E0FAA3A6
:100C9200E0FBC3951BEA951A5008CEECCECFEDCF00
:100CA20080D6C3EB951BF51DEA951AF51CC3E51D0D
:100CB2009410E51C940050198D828C83E0FBA3E014
:100CC2008F828E83CBF0A3EBF0ED2404FFE43CFE95
:100CD2002274FC251DF51D74FF351CF51C8D828CBC
:100CE20083A3A3F0A3E51DF0ED2404FFE43CFEEF93
:100CF200251DFFEE351CFE8F82F583A3A3E51AF0B6
:0C0D0200A3E51BF0EF2404FFE43EFE22FA
:0B13B70048006400000000000000007F
:10129B00EF4E7008FE7F01ED1D70011C900064EE97
:1012AB00F0A3EFF0A3ECF0A3EDF0900064E0FEA34D
:1012BB00E0FFF5828E83E4F0A3F0ED24FCFDEC342B
:0C12CB00FF8F828E83A3A3F0A3EDF0221E
:1006F400EF4E70030207F7900066E07002A3E0700B
:10070400030207F7CDEFCDCCEECCED24FCFDEC34A9
:10071400FFFC751C00751D64851D82851C83E0FA31
:10072400A3E08A1EF51F451E6011D3E51F9FE51E39
:100734009E5008851E1C851F1D80DDE51F451E601B
:100744004A8D828C83A3A3E0FAA3E02FFFEA3EFE46
:10075400EF651F7003EE651E7031851F82851E8351
:10076400A3A3E0FEA3E02404FFE43E8D828C83A3D4
:10077400A38FF01202A9851F82851E83E0FFA3E0E8
:100784008D828C83CFF0A3EFF0800B8D828C83E578
:100794001EF0A3E51FF0851D82851C83A3A3E0FE44
:1007A400A3E0251DFFEE351CFEEF2404FFE43EFE0E
:1007B400EF6D7002EE6C70308D828C83A3A3E0FE2B
:1007C400A3E02404FFE43E851D82851C83A3A38F3C
:1007D400F01202A98D828C83E0FFA3E0851D82853F
:1007E4001C83CFF0A3EFF022851D82851C83ECF0DF
:0407F400A3EDF0225F
:100E410002135FE493A3F8E493A34003F68001F255
:100E510008DFF48029E493A3F85407240CC8C333B2
:100E6100C4540F4420C8834004F456800146F6DF81
:100E7100E4800B01020408102040809013A6E47E58
:100E8100019360BCA3FF543F30E509541FFEE49376
:100E9100A360010ECF54C025E060A840B8E493A33D
:100EA100FAE493A3F8E493A3C8C582C8CAC583CA68
:100EB100F0A3C8C582C8CAC583CADFE9DEE780BE20
:0113C200002A
:1002A900C5F0F8A3E028F0C5F0F8E58215827002E0
:0602B9001583E038F0227D
:0902BF00E6FB08E6FA08E6F92264
:0902C800EBF608EAF608E9F6225B
:0902D100E0FBA3E0FAA3E0F9222E
:0902DA00EBF0A3EAF0A3E9F02225
:0902E300E2FB08E2FA08E2F9224C
:0902EC00EBF208EAF208E9F22243
:0C02F500E493FB740193FA740293F92265
:00000001FF
